{
  "contractName": "Tracker",
  "abi": [
    {
      "inputs": [],
      "payable": false,
      "stateMutability": "nonpayable",
      "type": "constructor"
    },
    {
      "anonymous": false,
      "inputs": [
        {
          "indexed": false,
          "name": "aadharNo",
          "type": "uint256"
        },
        {
          "indexed": false,
          "name": "name",
          "type": "string"
        },
        {
          "indexed": false,
          "name": "addr",
          "type": "string"
        },
        {
          "indexed": false,
          "name": "CurrStatusOfSector",
          "type": "string"
        },
        {
          "indexed": false,
          "name": "timestamp",
          "type": "uint256"
        },
        {
          "indexed": false,
          "name": "temp",
          "type": "string"
        }
      ],
      "name": "CheckinCreated",
      "type": "event"
    },
    {
      "anonymous": false,
      "inputs": [
        {
          "indexed": false,
          "name": "aadharNo",
          "type": "uint256"
        },
        {
          "indexed": false,
          "name": "index",
          "type": "uint256[]"
        }
      ],
      "name": "CounterUpdated",
      "type": "event"
    },
    {
      "constant": true,
      "inputs": [
        {
          "name": "counter",
          "type": "uint256"
        }
      ],
      "name": "getAadharInfo",
      "outputs": [
        {
          "components": [
            {
              "name": "aadharNo",
              "type": "uint256"
            },
            {
              "name": "index",
              "type": "uint256[]"
            }
          ],
          "name": "",
          "type": "tuple"
        }
      ],
      "payable": false,
      "stateMutability": "view",
      "type": "function"
    },
    {
      "constant": true,
      "inputs": [
        {
          "name": "index",
          "type": "uint256"
        }
      ],
      "name": "getCheckinInfo",
      "outputs": [
        {
          "components": [
            {
              "name": "aadharNo",
              "type": "uint256"
            },
            {
              "name": "name",
              "type": "string"
            },
            {
              "name": "addr",
              "type": "string"
            },
            {
              "name": "CurrStatusOfSector",
              "type": "string"
            },
            {
              "name": "timestamp",
              "type": "uint256"
            },
            {
              "name": "temp",
              "type": "string"
            }
          ],
          "name": "",
          "type": "tuple"
        }
      ],
      "payable": false,
      "stateMutability": "view",
      "type": "function"
    },
    {
      "constant": false,
      "inputs": [
        {
          "name": "_aadharNo",
          "type": "uint256"
        },
        {
          "name": "_name",
          "type": "string"
        },
        {
          "name": "_addr",
          "type": "string"
        },
        {
          "name": "_status",
          "type": "string"
        },
        {
          "name": "_temp",
          "type": "string"
        }
      ],
      "name": "CreateCheckin",
      "outputs": [],
      "payable": false,
      "stateMutability": "nonpayable",
      "type": "function"
    }
  ],
  "bytecode": "0x60806040526000805534801561001457600080fd5b5060038054600160a060020a03191633179055610c30806100366000396000f3fe6080604052600436106100565763ffffffff7c01000000000000000000000000000000000000000000000000000000006000350416639aecd382811461005b578063c768d4f21461007d578063ee50af58146100b3575b600080fd5b34801561006757600080fd5b5061007b61007636600461080b565b6100e0565b005b34801561008957600080fd5b5061009d6100983660046107e5565b61021f565b6040516100aa9190610a9b565b60405180910390f35b3480156100bf57600080fd5b506100d36100ce3660046107e5565b6102c3565b6040516100aa9190610a8a565b60035473ffffffffffffffffffffffffffffffffffffffff16331461010457600080fd5b6000805460019081018083556040805160c08101825289815260208082018a81528284018a905260608301899052426080840181905260a084018990529487526002825292909520815181559151805193959194929361016b93850192919091019061065a565b506040820151805161018791600284019160209091019061065a565b50606082015180516101a391600384019160209091019061065a565b506080820151600482015560a082015180516101c991600584019160209091019061065a565b509050506101d686610562565b7fe5adb618e5f1b50fe7f4aae1dc4b92c436ee5caaa5691e2cf92b94ff5423793986868686858760405161020f96959493929190610acc565b60405180910390a1505050505050565b6102276106d8565b60035473ffffffffffffffffffffffffffffffffffffffff16331461024b57600080fd5b6000828152600160208181526040928390208351808501855281548152928101805485518185028101850190965280865293949193858401938301828280156102b357602002820191906000526020600020905b81548152602001906001019080831161029f575b5050505050815250509050919050565b6102cb6106f0565b60035473ffffffffffffffffffffffffffffffffffffffff1633146102ef57600080fd5b600082815260026020818152604092839020835160c081018552815481526001808301805487519281161561010002600019011695909504601f81018590048502820185019096528581529094919385840193919290918301828280156103975780601f1061036c57610100808354040283529160200191610397565b820191906000526020600020905b81548152906001019060200180831161037a57829003601f168201915b5050509183525050600282810180546040805160206001841615610100026000190190931694909404601f810183900483028501830190915280845293810193908301828280156104295780601f106103fe57610100808354040283529160200191610429565b820191906000526020600020905b81548152906001019060200180831161040c57829003601f168201915b505050918352505060038201805460408051602060026001851615610100026000190190941693909304601f81018490048402820184019092528181529382019392918301828280156104bd5780601f10610492576101008083540402835291602001916104bd565b820191906000526020600020905b8154815290600101906020018083116104a057829003601f168201915b5050509183525050600482015460208083019190915260058301805460408051601f600260001961010060018716150201909416939093049283018590048502810185018252828152940193928301828280156102b35780601f10610530576101008083540402835291602001916102b3565b820191906000526020600020905b81548152906001019060200180831161053e57505050919092525091949350505050565b600081815260016020818152604080842084548185018054958601815580875295849020909401939093558051808201825285815284548251818502810185019093528083529394939092838101929185918301828280156105e357602002820191906000526020600020905b8154815260200190600101908083116105cf575b505050919092525050600084815260016020818152604090922083518155838301518051919361061893850192910190610727565b509050507fd00ec28689206266033c199be946559bd8435b9f31185fba71b330532a258a3c838260405161064d929190610aac565b60405180910390a1505050565b828054600181600116156101000203166002900490600052602060002090601f016020900481019282601f1061069b57805160ff19168380011785556106c8565b828001600101855582156106c8579182015b828111156106c85782518255916020019190600101906106ad565b506106d4929150610761565b5090565b60408051808201909152600081526060602082015290565b60c0604051908101604052806000815260200160608152602001606081526020016060815260200160008152602001606081525090565b8280548282559060005260206000209081019282156106c857916020028201828111156106c85782518255916020019190600101906106ad565b61077b91905b808211156106d45760008155600101610767565b90565b6000601f8201831361078f57600080fd5b81356107a261079d82610b68565b610b41565b915080825260208301602083018583830111156107be57600080fd5b6107c9838284610bb0565b50505092915050565b60006107de823561077b565b9392505050565b6000602082840312156107f757600080fd5b600061080384846107d2565b949350505050565b600080600080600060a0868803121561082357600080fd5b600061082f88886107d2565b955050602086013567ffffffffffffffff81111561084c57600080fd5b6108588882890161077e565b945050604086013567ffffffffffffffff81111561087557600080fd5b6108818882890161077e565b935050606086013567ffffffffffffffff81111561089e57600080fd5b6108aa8882890161077e565b925050608086013567ffffffffffffffff8111156108c757600080fd5b6108d38882890161077e565b9150509295509295909350565b60006108eb82610ba2565b8084526020840193506108fd83610b90565b60005b8281101561092d57610913868351610a7b565b61091c82610b90565b602096909601959150600101610900565b5093949350505050565b600061094282610ba6565b80845260208401935061095483610b96565b60005b8281101561092d5761096a868354610a7b565b61097382610baa565b602096909601959150600101610957565b600061098f82610ba2565b8084526109a3816020860160208601610bbc565b6109ac81610bec565b9093016020019392505050565b805160009060c08401906109cd8582610a7b565b50602083015184820360208601526109e58282610984565b915050604083015184820360408601526109ff8282610984565b91505060608301518482036060860152610a198282610984565b9150506080830151610a2e6080860182610a7b565b5060a083015184820360a0860152610a468282610984565b95945050505050565b80516000906040840190610a638582610a7b565b5060208301518482036020860152610a4682826108e0565b610a848161077b565b82525050565b602080825281016107de81846109b9565b602080825281016107de8184610a4f565b60408101610aba8285610a7b565b81810360208301526108038184610937565b60c08101610ada8289610a7b565b8181036020830152610aec8188610984565b90508181036040830152610b008187610984565b90508181036060830152610b148186610984565b9050610b236080830185610a7b565b81810360a0830152610b358184610984565b98975050505050505050565b60405181810167ffffffffffffffff81118282101715610b6057600080fd5b604052919050565b600067ffffffffffffffff821115610b7f57600080fd5b506020601f91909101601f19160190565b60200190565b60009081526020902090565b5190565b5490565b60010190565b82818337506000910152565b60005b83811015610bd7578181015183820152602001610bbf565b83811115610be6576000848401525b50505050565b601f01601f19169056fea265627a7a723058201ee9c0023cf939e9edc99ccff63cd727d52ec644aa7fc9f524d2d6614f5e849d6c6578706572696d656e74616cf50037",
  "source": "pragma solidity ^0.5.0;\r\npragma experimental ABIEncoderV2;\r\n\r\ncontract Tracker{\r\n    \r\n    uint256 private CheckinCounter = 0;\r\n    \r\n    mapping (uint256 => Identification)  private Identifications;\r\n    \r\n    mapping (uint256 => Checkin) private checkins;\r\n    \r\n    address private owner;\r\n    \r\n    \r\n    struct Identification{\r\n        uint256 aadharNo;\r\n        uint256[] index;\r\n    }\r\n    \r\n    struct Checkin{\r\n        uint256 aadharNo;\r\n        string name;\r\n        string addr;\r\n        string CurrStatusOfSector;\r\n        uint256 timestamp;\r\n        string temp;\r\n    }\r\n    \r\n    event CheckinCreated(\r\n        uint256 aadharNo,\r\n        string name,\r\n        string addr,\r\n        string CurrStatusOfSector,\r\n        uint256 timestamp,\r\n        string temp\r\n    );\r\n    \r\n    event CounterUpdated(\r\n        uint256 aadharNo,\r\n        uint256[] index\r\n    );\r\n    \r\n    constructor() public{\r\n        owner = msg.sender;\r\n    }\r\n    \r\n    modifier onlyOwner(){\r\n        require(msg.sender == owner);\r\n        _;\r\n    }\r\n    \r\n    function UpdateCounter(uint256 _aadharNo) private{\r\n        Identification storage _identification = Identifications[_aadharNo];\r\n        uint256[] storage _arr  =_identification.index;\r\n        _arr.push(CheckinCounter);\r\n        Identifications[_aadharNo] = Identification(_aadharNo,_arr);\r\n        emit CounterUpdated (_aadharNo,_arr);\r\n    }\r\n    \r\n    function getAadharInfo(uint256 counter) public onlyOwner view returns (Identification memory) {\r\n    return Identifications[counter];\r\n}\r\n    \r\n    function getCheckinInfo(uint256 index) public onlyOwner view returns (Checkin memory) {\r\n        return checkins[index];\r\n    }    \r\n   \r\n    function CreateCheckin(uint256 _aadharNo,string memory _name,string memory _addr,string memory _status,string memory _temp) public onlyOwner{\r\n        CheckinCounter++;\r\n        uint _timestamp = block.timestamp;\r\n        checkins[CheckinCounter] = Checkin(_aadharNo, _name,_addr,_status,_timestamp,_temp);\r\n        UpdateCounter(_aadharNo);\r\n        emit CheckinCreated (_aadharNo, _name,_addr,_status,_timestamp,_temp);\r\n    }\r\n    \r\n    \r\n}",
  "sourcePath": "D:/Personal projects/Ethereum_CoronaTracker/contracts/Tracker.sol",
  "compiler": {
    "name": "solc",
    "version": "0.5.0+commit.1d4f565a.Emscripten.clang"
  },
  "schemaVersion": "3.0.1",
  "updatedAt": "2020-07-12T12:38:54.106Z",
  "devdoc": {
    "methods": {}
  },
  "userdoc": {
    "methods": {}
  }
}