{
  "contractName": "Tracker",
  "abi": [
    {
      "inputs": [],
      "payable": false,
      "stateMutability": "nonpayable",
      "type": "constructor",
      "signature": "constructor"
    },
    {
      "anonymous": false,
      "inputs": [
        {
          "indexed": false,
          "name": "aadharNo",
          "type": "uint256"
        },
        {
          "indexed": false,
          "name": "name",
          "type": "string"
        },
        {
          "indexed": false,
          "name": "addr",
          "type": "string"
        },
        {
          "indexed": false,
          "name": "CurrStatusOfSector",
          "type": "string"
        },
        {
          "indexed": false,
          "name": "timestamp",
          "type": "uint256"
        },
        {
          "indexed": false,
          "name": "temp",
          "type": "string"
        },
        {
          "indexed": false,
          "name": "sector",
          "type": "string"
        }
      ],
      "name": "CheckinCreated",
      "type": "event",
      "signature": "0x2ff86af56fe639688e26520ca8f61d4797cc5df14bab79779d593e97d842e837"
    },
    {
      "anonymous": false,
      "inputs": [
        {
          "indexed": false,
          "name": "aadharNo",
          "type": "uint256"
        },
        {
          "indexed": false,
          "name": "index",
          "type": "uint256[]"
        }
      ],
      "name": "CounterUpdated",
      "type": "event",
      "signature": "0xd00ec28689206266033c199be946559bd8435b9f31185fba71b330532a258a3c"
    },
    {
      "constant": true,
      "inputs": [
        {
          "name": "_aadharNo",
          "type": "uint256"
        }
      ],
      "name": "getAadharInfo",
      "outputs": [
        {
          "name": "",
          "type": "uint256[]"
        }
      ],
      "payable": false,
      "stateMutability": "view",
      "type": "function",
      "signature": "0xc768d4f2"
    },
    {
      "constant": true,
      "inputs": [
        {
          "name": "index",
          "type": "uint256"
        }
      ],
      "name": "getCheckinInfo",
      "outputs": [
        {
          "name": "",
          "type": "uint256"
        },
        {
          "name": "",
          "type": "string"
        },
        {
          "name": "",
          "type": "string"
        },
        {
          "name": "",
          "type": "string"
        },
        {
          "name": "",
          "type": "uint256"
        },
        {
          "name": "",
          "type": "string"
        },
        {
          "name": "",
          "type": "string"
        }
      ],
      "payable": false,
      "stateMutability": "view",
      "type": "function",
      "signature": "0xee50af58"
    },
    {
      "constant": false,
      "inputs": [
        {
          "name": "_aadharNo",
          "type": "uint256"
        },
        {
          "name": "_name",
          "type": "string"
        },
        {
          "name": "_addr",
          "type": "string"
        },
        {
          "name": "_status",
          "type": "string"
        },
        {
          "name": "_temp",
          "type": "string"
        },
        {
          "name": "_sector",
          "type": "string"
        }
      ],
      "name": "CreateCheckin",
      "outputs": [],
      "payable": false,
      "stateMutability": "nonpayable",
      "type": "function",
      "signature": "0xb7d9071c"
    }
  ],
  "bytecode": "0x6080604052600080553480156200001557600080fd5b5060038054600160a060020a031916331790556040805160e08101825261303981528151808301835260058082527f54657374310000000000000000000000000000000000000000000000000000006020838101919091528084019283528451808601865260048082527f54657374000000000000000000000000000000000000000000000000000000008284015285870191909152855180870187529283527f477265656e000000000000000000000000000000000000000000000000000000838301526060850192909252426080850152845180860186529182527f39382e36000000000000000000000000000000000000000000000000000000008282015260a08401919091528351808501909452600184527f35000000000000000000000000000000000000000000000000000000000000008482015260c0830193909352600080526002835281517fac33ff75c19e70fe83507db0d683fd3465c996598dc972688b7ace676c89077b9081559051805192939192620001bd927fac33ff75c19e70fe83507db0d683fd3465c996598dc972688b7ace676c89077c92019062000249565b5060408201518051620001db91600284019160209091019062000249565b5060608201518051620001f991600384019160209091019062000249565b506080820151600482015560a082015180516200022191600584019160209091019062000249565b5060c082015180516200023f91600684019160209091019062000249565b50905050620002ee565b828054600181600116156101000203166002900490600052602060002090601f016020900481019282601f106200028c57805160ff1916838001178555620002bc565b82800160010185558215620002bc579182015b82811115620002bc5782518255916020019190600101906200029f565b50620002ca929150620002ce565b5090565b620002eb91905b80821115620002ca5760008155600101620002d5565b90565b610fb180620002fe6000396000f3fe6080604052600436106100565763ffffffff7c0100000000000000000000000000000000000000000000000000000000600035041663b7d9071c811461005b578063c768d4f214610333578063ee50af58146103ad575b600080fd5b34801561006757600080fd5b50610331600480360360c081101561007e57600080fd5b813591908101906040810160208201356401000000008111156100a057600080fd5b8201836020820111156100b257600080fd5b803590602001918460018302840111640100000000831117156100d457600080fd5b91908080601f016020809104026020016040519081016040528093929190818152602001838380828437600092019190915250929594936020810193503591505064010000000081111561012757600080fd5b82018360208201111561013957600080fd5b8035906020019184600183028401116401000000008311171561015b57600080fd5b91908080601f01602080910402602001604051908101604052809392919081815260200183838082843760009201919091525092959493602081019350359150506401000000008111156101ae57600080fd5b8201836020820111156101c057600080fd5b803590602001918460018302840111640100000000831117156101e257600080fd5b91908080601f016020809104026020016040519081016040528093929190818152602001838380828437600092019190915250929594936020810193503591505064010000000081111561023557600080fd5b82018360208201111561024757600080fd5b8035906020019184600183028401116401000000008311171561026957600080fd5b91908080601f01602080910402602001604051908101604052809392919081815260200183838082843760009201919091525092959493602081019350359150506401000000008111156102bc57600080fd5b8201836020820111156102ce57600080fd5b803590602001918460018302840111640100000000831117156102f057600080fd5b91908080601f0160208091040260200160405190810160405280939291908181526020018383808284376000920191909152509295506105f5945050505050565b005b34801561033f57600080fd5b5061035d6004803603602081101561035657600080fd5b503561095c565b60408051602080825283518183015283519192839290830191858101910280838360005b83811015610399578181015183820152602001610381565b505050509050019250505060405180910390f35b3480156103b957600080fd5b506103d7600480360360208110156103d057600080fd5b5035610a08565b60405180888152602001806020018060200180602001878152602001806020018060200186810386528c818151815260200191508051906020019080838360005b83811015610430578181015183820152602001610418565b50505050905090810190601f16801561045d5780820380516001836020036101000a031916815260200191505b5086810385528b5181528b516020918201918d019080838360005b83811015610490578181015183820152602001610478565b50505050905090810190601f1680156104bd5780820380516001836020036101000a031916815260200191505b5086810384528a5181528a516020918201918c019080838360005b838110156104f05781810151838201526020016104d8565b50505050905090810190601f16801561051d5780820380516001836020036101000a031916815260200191505b5086810383528851815288516020918201918a019080838360005b83811015610550578181015183820152602001610538565b50505050905090810190601f16801561057d5780820380516001836020036101000a031916815260200191505b50868103825287518152875160209182019189019080838360005b838110156105b0578181015183820152602001610598565b50505050905090810190601f1680156105dd5780820380516001836020036101000a031916815260200191505b509c5050505050505050505050505060405180910390f35b60035473ffffffffffffffffffffffffffffffffffffffff16331461061957600080fd5b6000805460019081018083556040805160e0810182528a815260208082018b81528284018b9052606083018a9052426080840181905260a084018a905260c0840189905294875260028252929095208151815591518051939591949293610687938501929190910190610e98565b50604082015180516106a3916002840191602090910190610e98565b50606082015180516106bf916003840191602090910190610e98565b506080820151600482015560a082015180516106e5916005840191602090910190610e98565b5060c08201518051610701916006840191602090910190610e98565b5090505061070e87610d5c565b7f2ff86af56fe639688e26520ca8f61d4797cc5df14bab79779d593e97d842e8378787878785888860405180888152602001806020018060200180602001878152602001806020018060200186810386528c818151815260200191508051906020019080838360005b8381101561078f578181015183820152602001610777565b50505050905090810190601f1680156107bc5780820380516001836020036101000a031916815260200191505b5086810385528b5181528b516020918201918d019080838360005b838110156107ef5781810151838201526020016107d7565b50505050905090810190601f16801561081c5780820380516001836020036101000a031916815260200191505b5086810384528a5181528a516020918201918c019080838360005b8381101561084f578181015183820152602001610837565b50505050905090810190601f16801561087c5780820380516001836020036101000a031916815260200191505b5086810383528851815288516020918201918a019080838360005b838110156108af578181015183820152602001610897565b50505050905090810190601f1680156108dc5780820380516001836020036101000a031916815260200191505b50868103825287518152875160209182019189019080838360005b8381101561090f5781810151838201526020016108f7565b50505050905090810190601f16801561093c5780820380516001836020036101000a031916815260200191505b509c5050505050505050505050505060405180910390a150505050505050565b60035460609073ffffffffffffffffffffffffffffffffffffffff16331461098357600080fd5b61098b610f16565b6000838152600160208181526040928390208351808501855281548152928101805485518185028101850190965280865293949193858401938301828280156109f357602002820191906000526020600020905b8154815260200190600101908083116109df575b50505091909252505050602001519392505050565b6003546000906060908190819084908290819073ffffffffffffffffffffffffffffffffffffffff163314610a3c57600080fd5b60008881526002602081815260409283902080546001808301805487519281161561010002600019011695909504601f810185900485028201850190965285815291949093606093909190830182828015610ad85780601f10610aad57610100808354040283529160200191610ad8565b820191906000526020600020905b815481529060010190602001808311610abb57829003601f168201915b50505060028087018054604080516020601f6000196101006001871615020190941695909504928301859004850281018501909152818152959650606095945090925090830182828015610b6d5780601f10610b4257610100808354040283529160200191610b6d565b820191906000526020600020905b815481529060010190602001808311610b5057829003601f168201915b5050505060038601805460408051602060026001851615610100026000190190941693909304601f8101849004840282018401909252818152949550606094935090830182828015610c005780601f10610bd557610100808354040283529160200191610c00565b820191906000526020600020905b815481529060010190602001808311610be357829003601f168201915b50505050600487015460058801805460408051602060026001851615610100026000190190941693909304601f81018490048402820184019092528181529596509294606094509290830182828015610c9a5780601f10610c6f57610100808354040283529160200191610c9a565b820191906000526020600020905b815481529060010190602001808311610c7d57829003601f168201915b5050505060068901805460408051602060026001851615610100026000190190941693909304601f8101849004840282018401909252818152949550606094935090830182828015610d2d5780601f10610d0257610100808354040283529160200191610d2d565b820191906000526020600020905b815481529060010190602001808311610d1057829003601f168201915b50505050509050868686868686869e509e509e509e509e509e509e505050505050505050919395979092949650565b60008181526001602081815260408084208454818501805495860181558087529584902090940193909355805180820182528581528454825181850281018501909352808352939493909283810192918591830182828015610ddd57602002820191906000526020600020905b815481526020019060010190808311610dc9575b5050509190925250506000848152600160208181526040909220835181558383015180519193610e1293850192910190610f2e565b509050507fd00ec28689206266033c199be946559bd8435b9f31185fba71b330532a258a3c838260405180838152602001806020018281038252838181548152602001915080548015610e8457602002820191906000526020600020905b815481526020019060010190808311610e70575b5050935050505060405180910390a1505050565b828054600181600116156101000203166002900490600052602060002090601f016020900481019282601f10610ed957805160ff1916838001178555610f06565b82800160010185558215610f06579182015b82811115610f06578251825591602001919060010190610eeb565b50610f12929150610f68565b5090565b60408051808201909152600081526060602082015290565b828054828255906000526020600020908101928215610f065791602002820182811115610f06578251825591602001919060010190610eeb565b610f8291905b80821115610f125760008155600101610f6e565b9056fea165627a7a7230582078356b524a8c7767c65e4a64309957f452c20ad03ab497ef02959321143ad23c0029",
  "source": "pragma solidity ^0.5.0;\r\n\r\ncontract Tracker{\r\n    \r\n    uint256 private CheckinCounter = 0;\r\n    \r\n    mapping (uint256 => Identification)  private Identifications;\r\n    \r\n    mapping (uint256 => Checkin) private checkins;\r\n    \r\n    address private owner;\r\n    \r\n    \r\n    struct Identification{\r\n        uint256 aadharNo;\r\n        uint256[] index;\r\n    }\r\n    \r\n    struct Checkin{\r\n        uint256 aadharNo;\r\n        string name;\r\n        string addr;\r\n        string CurrStatusOfSector;\r\n        uint256 timestamp;\r\n        string temp;\r\n        string sector;\r\n    }\r\n    \r\n    event CheckinCreated(\r\n        uint256 aadharNo,\r\n        string name,\r\n        string addr,\r\n        string CurrStatusOfSector,\r\n        uint256 timestamp,\r\n        string temp,\r\n        string sector\r\n    );\r\n    \r\n    event CounterUpdated(\r\n        uint256 aadharNo,\r\n        uint256[] index\r\n    );\r\n    \r\n    constructor() public{\r\n        owner = msg.sender;\r\n        checkins[0] = Checkin(12345, \"Test1\",\"Test\",\"Green\",block.timestamp,\"98.6\",\"5\");\r\n    }\r\n    \r\n    modifier onlyOwner(){\r\n        require(msg.sender == owner);\r\n        _;\r\n    }\r\n    \r\n    function UpdateCounter(uint256 _aadharNo) private{\r\n        Identification storage _identification = Identifications[_aadharNo];\r\n        uint256[] storage _arr  =_identification.index;\r\n        _arr.push(CheckinCounter);\r\n        Identifications[_aadharNo] = Identification(_aadharNo,_arr);\r\n        emit CounterUpdated (_aadharNo,_arr);\r\n    }\r\n    \r\n    function getAadharInfo(uint256 _aadharNo) public onlyOwner view returns (uint256[] memory) {\r\n     Identification memory _identification = Identifications[_aadharNo];\r\n     uint256[] memory arr = _identification.index;\r\n     return arr;\r\n    }\r\n    \r\n    function getCheckinInfo(uint256 index) public onlyOwner view returns (uint256,string memory,string memory,string memory,uint256,string memory,string memory) {\r\n        Checkin storage _checkin = checkins[index];\r\n        uint256 _aadharNo = _checkin.aadharNo;\r\n        string memory _name = _checkin.name;\r\n        string memory _addr = _checkin.addr;\r\n        string memory _StatOfSec =_checkin.CurrStatusOfSector;\r\n        uint256 _time = _checkin.timestamp;\r\n        string memory _temp =  _checkin.temp;\r\n        string memory _sector = _checkin.sector;\r\n        //return(_aadharNo);\r\n        return (_aadharNo,_name,_addr,_StatOfSec,_time,_temp,_sector);\r\n    }\r\n   \r\n    function CreateCheckin(uint256 _aadharNo,string memory _name,string memory _addr,string memory _status,string memory _temp,string memory _sector) public onlyOwner{\r\n        CheckinCounter++;\r\n        uint _timestamp = block.timestamp;\r\n        checkins[CheckinCounter] = Checkin(_aadharNo, _name,_addr,_status,_timestamp,_temp,_sector);\r\n        UpdateCounter(_aadharNo);\r\n        emit CheckinCreated (_aadharNo, _name,_addr,_status,_timestamp,_temp,_sector);\r\n    }\r\n    \r\n    \r\n}",
  "sourcePath": "D:/Personal projects/Ethereum_CoronaTracker/contracts/Tracker.sol",
  "compiler": {
    "name": "solc",
    "version": "0.5.0+commit.1d4f565a.Emscripten.clang"
  },
  "schemaVersion": "3.0.1",
  "updatedAt": "2020-07-13T20:35:54.408Z",
  "devdoc": {
    "methods": {}
  },
  "userdoc": {
    "methods": {}
  }
}